{
  "transactions": [
    {
      "hash": null,
      "transactionType": "CALL",
      "contractName": "LinkToken",
      "contractAddress": "0x779877a7b0d9e8603169ddbd7836e478b4624789",
      "function": "transferAndCall(address,uint256,bytes)",
      "arguments": [
        "0x9DdfaCa8183c41ad55329BdeeD9F6A8d53168B1B",
        "3000000000000000000",
        "0xeede560aa7d31167545b83b64c23e8ee36f795607c0cbee387d5e07253fddbd0"
      ],
      "transaction": {
        "from": "0x6002bad747afd5690f543a670f3e3bd30e033084",
        "to": "0x779877a7b0d9e8603169ddbd7836e478b4624789",
        "gas": "0x14cbb",
        "value": "0x0",
        "input": "0x4000aea00000000000000000000000009ddfaca8183c41ad55329bdeed9f6a8d53168b1b00000000000000000000000000000000000000000000000029a2241af62c000000000000000000000000000000000000000000000000000000000000000000600000000000000000000000000000000000000000000000000000000000000020eede560aa7d31167545b83b64c23e8ee36f795607c0cbee387d5e07253fddbd0",
        "nonce": "0x53",
        "chainId": "0xaa36a7"
      },
      "additionalContracts": [],
      "isFixedGasLimit": false
    }
  ],
  "receipts": [],
  "libraries": [],
  "pending": [],
  "returns": {},
  "timestamp": 1761275667530,
  "chain": 11155111,
  "commit": "92770d9"
}