{
  "transactions": [
    {
      "hash": "0x5ab1b275f6be8eab750adb04e9e2fec979cd66970b53d9a53ab13b2df3d344e0",
      "transactionType": "CALL",
      "contractName": null,
      "contractAddress": "0x779877a7b0d9e8603169ddbd7836e478b4624789",
      "function": "transferAndCall(address,uint256,bytes)",
      "arguments": [
        "0x9DdfaCa8183c41ad55329BdeeD9F6A8d53168B1B",
        "3000000000000000000",
        "0xeede560aa7d31167545b83b64c23e8ee36f795607c0cbee387d5e07253fddbd0"
      ],
      "transaction": {
        "from": "0x6002bad747afd5690f543a670f3e3bd30e033084",
        "to": "0x779877a7b0d9e8603169ddbd7836e478b4624789",
        "gas": "0x14cbb",
        "value": "0x0",
        "input": "0x4000aea00000000000000000000000009ddfaca8183c41ad55329bdeed9f6a8d53168b1b00000000000000000000000000000000000000000000000029a2241af62c000000000000000000000000000000000000000000000000000000000000000000600000000000000000000000000000000000000000000000000000000000000020eede560aa7d31167545b83b64c23e8ee36f795607c0cbee387d5e07253fddbd0",
        "nonce": "0x51",
        "chainId": "0xaa36a7"
      },
      "additionalContracts": [],
      "isFixedGasLimit": false
    }
  ],
  "receipts": [
    {
      "status": "0x1",
      "cumulativeGasUsed": "0x7d140f",
      "logs": [
        {
          "address": "0x779877a7b0d9e8603169ddbd7836e478b4624789",
          "topics": [
            "0xddf252ad1be2c89b69c2b068fc378daa952ba7f163c4a11628f55a4df523b3ef",
            "0x0000000000000000000000006002bad747afd5690f543a670f3e3bd30e033084",
            "0x0000000000000000000000009ddfaca8183c41ad55329bdeed9f6a8d53168b1b"
          ],
          "data": "0x00000000000000000000000000000000000000000000000029a2241af62c0000",
          "blockHash": "0x5441b68ea10f1fe542b2eee6f3b160efe4234079079bb19b288cece1f095a3ac",
          "blockNumber": "0x905636",
          "blockTimestamp": "0x68f78bec",
          "transactionHash": "0x5ab1b275f6be8eab750adb04e9e2fec979cd66970b53d9a53ab13b2df3d344e0",
          "transactionIndex": "0x42",
          "logIndex": "0x68",
          "removed": false
        },
        {
          "address": "0x779877a7b0d9e8603169ddbd7836e478b4624789",
          "topics": [
            "0xe19260aff97b920c7df27010903aeb9c8d2be5d310a2c67824cf3f15396e4c16",
            "0x0000000000000000000000006002bad747afd5690f543a670f3e3bd30e033084",
            "0x0000000000000000000000009ddfaca8183c41ad55329bdeed9f6a8d53168b1b"
          ],
          "data": "0x00000000000000000000000000000000000000000000000029a2241af62c000000000000000000000000000000000000000000000000000000000000000000400000000000000000000000000000000000000000000000000000000000000020eede560aa7d31167545b83b64c23e8ee36f795607c0cbee387d5e07253fddbd0",
          "blockHash": "0x5441b68ea10f1fe542b2eee6f3b160efe4234079079bb19b288cece1f095a3ac",
          "blockNumber": "0x905636",
          "blockTimestamp": "0x68f78bec",
          "transactionHash": "0x5ab1b275f6be8eab750adb04e9e2fec979cd66970b53d9a53ab13b2df3d344e0",
          "transactionIndex": "0x42",
          "logIndex": "0x69",
          "removed": false
        },
        {
          "address": "0x9ddfaca8183c41ad55329bdeed9f6a8d53168b1b",
          "topics": [
            "0x1ced9348ff549fceab2ac57cd3a9de38edaaab274b725ee82c23e8fc8c4eec7a",
            "0xeede560aa7d31167545b83b64c23e8ee36f795607c0cbee387d5e07253fddbd0"
          ],
          "data": "0x00000000000000000000000000000000000000000000000029a2241af62c000000000000000000000000000000000000000000000000000053444835ec580000",
          "blockHash": "0x5441b68ea10f1fe542b2eee6f3b160efe4234079079bb19b288cece1f095a3ac",
          "blockNumber": "0x905636",
          "blockTimestamp": "0x68f78bec",
          "transactionHash": "0x5ab1b275f6be8eab750adb04e9e2fec979cd66970b53d9a53ab13b2df3d344e0",
          "transactionIndex": "0x42",
          "logIndex": "0x6a",
          "removed": false
        }
      ],
      "logsBloom": "0x00000004000000000000000000000000000000000020000000000000020000000000000000000000000000000000000000000000000000000000000000000000000000000000000000000008000000000000000000000000000020000020000008000000000000000000000000000000000000000000000000000010000040000000000000000000000000010000800000004020000000000000000000000000000000000000000000000000010000000020000000002000000004100000000000000102000000000000000000000000000000080000000100000000000000000010000000000000800000000000000000000000000000000000000000000000",
      "type": "0x2",
      "transactionHash": "0x5ab1b275f6be8eab750adb04e9e2fec979cd66970b53d9a53ab13b2df3d344e0",
      "transactionIndex": "0x42",
      "blockHash": "0x5441b68ea10f1fe542b2eee6f3b160efe4234079079bb19b288cece1f095a3ac",
      "blockNumber": "0x905636",
      "gasUsed": "0xf0e5",
      "effectiveGasPrice": "0xf424d",
      "from": "0x6002bad747afd5690f543a670f3e3bd30e033084",
      "to": "0x779877a7b0d9e8603169ddbd7836e478b4624789",
      "contractAddress": null
    }
  ],
  "libraries": [],
  "pending": [],
  "returns": {},
  "timestamp": 1761053678086,
  "chain": 11155111,
  "commit": "a904eab"
}